:100000000C9446000C9463000C9463000C94630001
:100010000C9463000C9463000C9463000C946300D4
:100020000C9463000C9463000C9463000C946300C4
:100030000C9463000C9463000C9463000C946300B4
:100040000C94A7030C9463000C9463000C9463005D
:100050000C9463000C9463000C9463000C94630094
:100060000C9463000C9463000C9463000C94630084
:100070000C9463000C9463000C9463000C94630074
:100080000C9463000C9463000C94630011241FBE55
:10009000CFEFD0E1DEBFCDBF11E0A0E0B1E0EEEDEB
:1000A000F7E002C005900D92A234B107D9F711E034
:1000B000A2E4B1E001C01D92AC34B107E1F70E94A7
:1000C00020030C94ED030C940000DF93CF9300D039
:1000D0000F92CDB7DEB788E893E19A8389831B82BC
:1000E00089819A81009711F081E08B8389819A81BF
:1000F00001979A8389838B81882389F70F900F90CA
:100100000F90CF91DF910895DF93CF9300D000D06F
:1001100000D0CDB7DEB79E838D831C821B8212C0B8
:100120001A82198205C089819A8101969A838983EE
:1001300089819A8184369105B0F38B819C810196E7
:100140009C838B832B813C818D819E81281739076D
:1001500038F326960FB6F894DEBF0FBECDBFCF9111
:10016000DF910895DF93CF930F92CDB7DEB78983E8
:10017000A5E3B0E0E5E3F0E080818D7F8C93A5E31B
:10018000B0E0E5E3F0E0808181608C93EBE3F0E0A8
:1001900089818083A5E3B0E0E5E3F0E080818460BD
:1001A0008C9382E090E00E948400A5E3B0E0E5E358
:1001B000F0E080818B7F8C930F90CF91DF91089539
:1001C000DF93CF930F92CDB7DEB78983A5E3B0E07D
:1001D000E5E3F0E080818E7F8C93EBE3F0E08981B2
:1001E0008083A5E3B0E0E5E3F0E0808184608C9358
:1001F00082E090E00E948400A5E3B0E0E5E3F0E057
:1002000080818B7F8C930F90CF91DF910895DF9346
:10021000CF93CDB7DEB786E990E00E94840088E3F3
:100220000E94E00082E390E00E94840088E30E9444
:10023000E00082E390E00E94840088E30E94E000F6
:1002400088E30E94E00088E00E94E00081E00E94D4
:10025000E00086E00E94E0008CE00E94E000CF9188
:10026000DF910895DF93CF9300D00F92CDB7DEB723
:1002700089836A834B838A8181708A8389818F70A5
:1002800089838A81882319F08981805C89838981A7
:100290008058898389810E94E0008B810E94B2008E
:1002A0000F900F900F90CF91DF910895DF93CF9330
:1002B00000D000D00F92CDB7DEB785E08B8313C09E
:1002C00080E49FE19A8389831C8289819A810097C7
:1002D00011F081E08C8389819A8101979A838983C7
:1002E0008C81882389F78B818D838D81882311F000
:1002F00081E08D838D819B8191509B83882301F7C1
:100300000F900F900F900F900F90CF91DF91089565
:10031000DF93CF930F92CDB7DEB7809149019091D3
:100320004A01198221E08130920714F081E089832B
:100330002981222339F081E08093480110924A01FB
:10034000109249018091490190914A01382F22274A
:10035000E2E5F0E08081882F90E0820F931F909378
:1003600043018093420110924A0110924901E2E553
:10037000F0E010822091420130914301C901829541
:100380009295907F9827807F9827820F931FCC01AA
:10039000A0E0B0E08093440190934501A093460112
:1003A000B09347018091440190914501A09146018D
:1003B000B09147012AE030E040E050E0BC01CD01BF
:1003C0000E94CB03DA01C901809344019093450157
:1003D000A0934601B093470180914401909145015B
:1003E000A0914601B0914701883823E1920720E0AF
:1003F000A20720E0B20788F480914801813069F0BB
:100400008091440190914501A0914601B09147012E
:1004100084319105A105B10550F510924801109263
:10042000440110924501109246011092470110922A
:100430004A011092490110924B0114C020914B01C6
:1004400080914B01882F90E0FC01E05DFE4F908190
:10045000822F61E0492F0E94320180914B018F5F12
:1004600080934B0180914B01803140F3A2C01092E8
:100470004B0114C020914B0180914B01882F90E0DB
:10048000FC01E15EFE4F9081822F61E0492F0E94C6
:10049000320180914B018F5F80934B0180914B0122
:1004A000803140F38091440190914501A091460133
:1004B000B091470128EE33E040E050E0BC01CD01AF
:1004C0000E94CB03DA01C901FC01EF5EFE4F90816F
:1004D00089E061E0492F0E943201809144019091AE
:1004E0004501A0914601B091470124E630E040E08B
:1004F00050E0BC01CD010E94CB03DA01C9012AE022
:1005000030E040E050E0BC01CD010E94CB03DC01B3
:10051000CB01FC01EF5EFE4F90818AE061E0492F44
:100520000E9432018091440190914501A0914601C1
:10053000B09147012AE030E040E050E0BC01CD013D
:100540000E94CB03DA01C9012AE030E040E050E02C
:10055000BC01CD010E94CB03DC01CB01FC01EF5EAD
:10056000FE4F90818BE061E0492F0E943201909113
:100570001B018CE061E0492F0E943201809144010F
:1005800090914501A0914601B09147012AE030E0E9
:1005900040E050E0BC01CD010E94CB03DC01CB0167
:1005A000FC01EF5EFE4F90818DE061E0492F0E94DB
:1005B00032010F90CF91DF910895DF93CF930F9287
:1005C000CDB7DEB7A3E5B0E0E3E5F0E0808182607F
:1005D0008C93E0E3F0E08081882F90E0827090704F
:1005E0001982009711F081E089838981882389F736
:1005F000E3E5F0E010820E9488010F90CF91DF9137
:100600000895DF93CF930F92CDB7DEB7A2E3B0E0AA
:10061000E2E3F0E0808181608C93198203C08981DC
:100620008F5F898389818F30D0F3A2E3B0E0E2E36A
:10063000F0E080818E7F8C930F90CF91DF910895B1
:10064000DF93CF9300D000D000D0CDB7DEB7EAE380
:10065000F0E08081EAE3F0E08FEF8083E4E3F0E014
:100660008081E4E3F0E08FEF8083A1E3B0E0E1E399
:10067000F0E080818D6F8C93E2E5F0E01082A7E5D9
:10068000B0E0E7E5F0E0808181608C93E3E5F0E0A5
:100690008081E3E5F0E0108278940E9456010E9488
:1006A00007010E9465001A82198211C0298189817F
:1006B0009A81FC01E050FF4F9081822F60E0492F2A
:1006C0000E94320189819A8101969A838983898166
:1006D0009A818031910550F31A82198211C02981C3
:1006E00089819A81FC01E15EFE4F9081822F61E059
:1006F000492F0E94320189819A8101969A838983C8
:1007000089819A818031910550F30E94010380E430
:100710009FE19A83898316C0E0E3F0E08081882F0F
:1007200090E0827090701B82009711F081E08B83C3
:100730008B81882311F00E94DD0289819A810197C3
:100740009A83898389819A81009731F7DECF1F923E
:100750000F920FB60F9211248F939F93EF93FF93F5
:10076000DF93CF93CDB7DEB7E2E5F0E01082809162
:10077000490190914A01019690934A018093490161
:10078000CF91DF91FF91EF919F918F910F900FBECD
:100790000F901F901895A1E21A2EAA1BBB1BFD01FA
:1007A0000DC0AA1FBB1FEE1FFF1FA217B307E40750
:1007B000F50720F0A21BB30BE40BF50B661F771FA8
:1007C000881F991F1A9469F7609570958095909588
:0E07D0009B01AC01BD01CF010895F894FFCF4D
:1007DE003D3D52616E67652046696E6465723D3DB2
:1007EE0000303132333435363738392E2D4D004402
:1007FE00697374616E63653A3030302E30636D000C
:10080E00212121204F7574206F662072616E6765FD
:02081E000000D8
:00000001FF
