:1004AA003D3D52616E67652046696E6465723D3DE9
:1004BA0000303132333435363738392E2D4D4469D0
:1004CA007374616E63653A3030302E30636D00218B
:1004DA002121204F7574206F662072616E67650056
:0C05DF0002080000040A00000000C10037
:07058C00E4FC7F381205A218
:0E0593007FB07E15EF1FAC0670011E4C70F697
:0105A1002237
:1005B8007580FFC2A0D2A1C2A2C2A2D2A2E58020A9
:0505C800E7FBAF8022FB
:1005CD00AE071205B88E80D2A0C2A1C2A2C2A2D21D
:0205DD00A22258
:1005A200AE07ED4C60031205B88E80C2A0C2A1C294
:0605B200A2C2A2D2A222A7
:10052600E4F580FD12058D12058C12058C0D7C00FC
:100536007F381205A27F081205A27F011205A27F4D
:09054600061205A27F0C0205A2B9
:05054F00E493FB7D01B7
:10055400AE0753050153060FED60034306404306FF
:0F05640080AF067D017C001205A2AF030205CD1A
:0804EA007A047BC87D01E4FFE8
:0804F2008D108A118B12A9077D
:1004FA00E4FA53100153010FE5122AF582E435118B
:10050A00F583E493FBD394194011E9D3940F50E88F
:0B051A00AF01AD101205540A0980DD8E
:0105250022B3
:100573007D05AC051DEC60107E1C7F65EF1FAA0690
:0805830070011E4A60EC80F4D7
:01058B00224D
:1002C000AF8CEFFEAD8A7C00E42DF509EC3EF5081D
:1002D000E4F58CF58AAC08AD091201197B9A7A997C
:1002E00079D9783F12000E1201528F0D8E0C8D0BB2
:1002F0008C0AE47B0AFAF9F812020F8F0D8E0C8D2E
:100300000B8C0AE47F887E13FDFCAB0DAA0CA90BB5
:10031000A80AC31202AF500330000DC2007A047B5A
:10032000D97D01E4FF0204F21204EAE47BE87A03D7
:10033000F9F8AF0DAE0CAD0BAC0A12020F74BB2F67
:10034000F58274043EF5837F0912054FE47B64FA5D
:10035000F9F8AF0DAE0CAD0BAC0A12020FE47B0A3C
:10036000FAF9F812020F74BB2BF58274043AF58384
:100370007F0A12054FE47B0AFAF9F8AF0DAE0CAD17
:100380000BAC0A12020FE47B0AFAF9F812020F749E
:10039000BB2BF58274043AF583E493FB7D017F0B5C
:1003A0001205549004C5E493FB7D017F0C120554A3
:1003B000E47B0AFAF9F8AF0DAE0CAD0BAC0A1202F1
:1003C0000F74BB2BF58274043AF583E493FB7D0133
:0603D0007F0D120554220E
:03000B00020003ED
:05000300D200C29232A0
:0A05F800D28C2092FDC28C0202C0DA
:0B05EC00D291E4FF000FBF0FFBC29193
:0105F70022E1
:100462001205731205261205937A047BAAE4FDFF96
:100472001204F21204EA758901D2AFE4F58CF58A0E
:10048200D2A9D2921205EC750E1D750F5630920349
:100492001205F8E50F150F7002150ED3E50F940043
:0804A200E50E940050E780DA3A
:10000E00EC4D6011E8497017ED33EC3304600DE4EC
:10001E00FCFFFEFD22E933E8330470F80201BE1244
:10002E00018958046009E4CC248150062850090245
:10003E0001C82840030201C5C0E0EB4A7044B980F4
:10004E0006D0E0FB0201B4EF4E701CBD8008EBFF42
:10005E00EAFEE9FD80EBE98DF0A4FEE5F00200F783
:10006E00E9CDF9EAFEEBFFEF89F0A4FCE5F0CE89CD
:10007E00F0A42EFFE435F0CD89F0A42DFEE435F08A
:10008E008067EF4E7005BD80D780C3EF8BF0A4ACB8
:10009E00F0EE8BF0A42CFCE435F0F8EF8AF0A42CF3
:1000AE00E5F038FCE433CB8DF0A42CFCE5F03BF806
:1000BE00EE8AF0A42CFCE5F038F8E433CF89F0A4F6
:1000CE002CFCE5F038CF3400CE89F0A42FFFE5F0FC
:1000DE003EFEE433C98DF0A42EFEE5F039CD8AF054
:1000EE00A42FFFE5F03EFEE43DFD33D0E0FB5007CC
:1000FE000BBB000F0201C8EC2CFCEF33FFEE33FEFE
:06010E00ED33FD0201A02B
:1001140075F020800E75F010800575F0087D007E66
:10012400007F003392D530D5031202A1EC33401086
:10013400EF33FFEE33FEED33FDEC33FCD5F0ED226F
:0E014400E5F0247EA2D513CC92E7CDCEFF22AB
:10015200EDD2E7CD33EC3392D524814006E4FFFEA5
:10016200FDFC22FCE4CFCECDCC24E0501174FF8004
:10017200EDC3CC13CCCD13CDCE13CECF13CF0470A1
:07018200F030D5DE0202A1FE
:10018900E9D2E7C933E833F892D5EDD2E7CD33ECBC
:0701990033FC5002B2D52235
:1001A000EC30E7100FBF000C0EBE00080DBD0004C0
:1001B0000BEB6014A2D5EB13FCED92E7FD2274FF6C
:1001C000FCFDFEFF22E480F8A2D574FF13FC7D80C5
:0301D000E480EFD9
:030000000203D622
:0C03D600787FE4F6D8FD75812002041D3C
:1001D30075F008758200EF2FFFEE33FECD33CDCCE3
:1001E30033CCC58233C5829BED9AEC99E582984066
:1001F3000CF582EE9BFEED9AFDEC99FC0FD5F0D643
:10020300E4CEFBE4CDFAE4CCF9A88222B800C1B96C
:100213000059BA002DEC8BF084CFCECDFCE5F0CBAA
:10022300F97818EF2FFFEE33FEED33FDEC33FCEBE3
:1002330033FB10D703994004EB99FB0FD8E5E4F99E
:10024300FA227818EF2FFFEE33FEED33FDEC33FC8B
:10025300C933C910D7059BE99A4007EC9BFCE99A7F
:10026300F90FD8E0E4C9FAE4CCFB2275F010EF2FC4
:10027300FFEE33FEED33FDCC33CCC833C810D707C4
:100283009BEC9AE899400AED9BFDEC9AFCE899F8FF
:0E0293000FD5F0DAE4CDFBE4CCFAE4C8F92292
:0E02A100C3E49FFFE49EFEE49DFDE49CFC226E
:1002AF00EB9FF5F0EA9E42F0E99D42F0E89C45F0A5
:0102BF00221C
:1003E200020462E493A3F8E493A34003F68001F2CB
:1003F20008DFF48029E493A3F85407240CC8C3331C
:10040200C4540F4420C8834004F456800146F6DFEA
:10041200E4800B01020408102040809005DFE47E96
:10042200019360BCA3FF543F30E509541FFEE493DF
:10043200A360010ECF54C025E060A840B8E493A3A6
:10044200FAE493A3F8E493A3C8C582C8CAC583CAD1
:10045200F0A3C8C582C8CAC583CADFE9DEE780BE89
:0105EB00000F
:00000001FF
